S0230000327061726369616C5F4D6963726F636F6E74726F6C61646F7265732E737265631B
S113000078240020F9040000F5040000F504000041
S113001000000000000000000000000000000000DC
S1130020000000000000000000000000F5040000D3
S11300300000000000000000F5040000F5040000CA
S1130040F5040000F5040000F5040000F5040000C8
S1130050F5040000F5040000F5040000F5040000B8
S1130060F5040000F5040000F5040000F5040000A8
S1130070F5040000F5040000F5040000F504000098
S1130080F5040000F5040000F5040000F504000088
S1130090F50400000000000000000000F50400006A
S11300A0F5040000F5040000F5040000F504000068
S11300B00000000010B5064C2378002B07D1054B37
S11300C0002B02D0044800E000BF0123237010BDC0
S11300D0340400200000000000080000084B10B5A4
S11300E0002B03D00749084800E000BF0748036815
S11300F0002B00D110BD064B002BFBD09847F9E72D
S1130100000000003804002000080000000800007F
S11301100000000070B50E00124D69883F24234092
S11301201A2421430B431202F02109010A4013430C
S11301309BB26B8069884904C90F314301236A88E3
S113014019408903084C2240114369806A88D20B04
S1130150104303406888DB034004400C1843688064
S113016070BDC046000C0040FFBFFFFF10B5142354
S1130170002201210020094CA0470523012201216E
S11301800020A0471E23022201210020A0471B2398
S1130190032201210020A04710BDC0461501000024
S11301A00E4B802212029A605A614F215A5C012040
S11301B002435A540F3932229954094B313A1A6086
S11301C019008B681A42FCD10122054B1A711900DF
S11301D003328B681A42FCD17047C0460044004188
S11301E000200042094BE022D2001A600222DA63A6
S11301F019003E328B681A42FCD1054A034B1A643B
S1130200190080228B681A42FCD1704700200042FA
S1130210FF030000024A136802210B431360704776
S113022000200042024A136A184310627047C04615
S113023000040040024A9369184390617047C04625
S11302400004004010B50548054B98474020054C74
S1130250A04780204000A04710BDC046040801000C
S1130260250200003502000030B5C4010C19094D07
S1130270AC46644422702278D20700D430BD4908C9
S1130280C0010918044A944661440A7813430B7068
S1130290F4E7C046404400413044004110B5022315
S11302A0032208210020174CA047202301220B2100
S11302B00020A0472023032209210020A047022375
S11302C003220A210020A047002300220E2100203F
S11302D0A047002300221B210020A0470A4B8022B4
S11302E052005A60802212019A60802292005A6061
S11302F08021C9005960802212059A6099619A612F
S113030010BDC0466902000000440041054B8F2225
S11303101A761A6802210A431A601A00D3699B07E5
S1130320FCD4704700080042F0B506000D00100030
S1130330364C2768099A91001C220A403A432260ED
S113034021688900C90F29430125226829404907EA
S11303502F4F3A40114321602268D200D20F02434A
S113036021682A4012072B4801400A432260216871
S1130370069A1204C020800202400A430599090526
S1130380C020800301400A431B06F02109050B40ED
S11303901343236020684000C00F30432368284083
S11303A080071D4A1340184320602268D205D20FEB
S11303B0079B1A4323682A40120218490B401A4328
S11303C0226022681206D20F089B1A4323682A402F
S11303D0D2018231FF318B431A4322602368DB0749
S11303E0DB0F0B9A134322682B40AA431343236069
S11303F023689B07DB0F0A9A134322682B405B0098
S11304007E398A4313432360F0BDC046000800428E
S1130410FFFFFFDFFFFFFFEFFFFFFFBFFFFEFFFF59
S1130420F0B507001D4C65680720069E3040284340
S113043060606668B604F60F1643012562682E40B4
S11304407603174802401643666060688003C00F55
S11304503843626828404004124E324010436060C2
S113046062688907090C1143616062689205D20FC2
S11304701A4363682A4052020B490B401A436260D4
S113048063685B06DB0F059A134362682B409B018C
S113049040218A4313436360F0BDC0460008004214
S11304A0FFDFFFFFFFFFFDFFFFFDFFFF30B589B05A
S11304B00024069405940223049303940294019364
S11304C000940023002200210120074DA8470C229C
S11304D0064B1A730194009400230022002101208A
S11304E0034CA04709B030BD2903000000080042B6
S11304F021040000FEE70000F8B52A4A2A4B9A427C
S113050011D01A00294B9A420DD2294A03339B1A5F
S11305109B0801339B000022234822498C588450B5
S113052004329A42FAD1234A234B9A420AD2D34341
S113053021495B1803218B4304339B18002102C219
S11305409342FCD11D4AFF211D4B8B439360FD391F
S113055090235B001B4AD1501B4AD3780325AB433D
S113056002242343D370D3780C27BB430826334398
S1130570D370164B987B30229043202210439873FB
S1130580997BB943314399739A7BAA4322439A7363
S11305900F4A536880210B4353600E4B98470E4B10
S11305A09847FEE700080000000000203404002003
S11305B004000020340400207404002000ED00E056
S11305C0000000000070004100500041004800415C
S11305D00040004139060000ED050000014A024BCD
S11305E01A60704740420F000000002010B5094B0C
S11305F09847094B9847094B9847094B9847094B2B
S11306009847094B9847094B9847094B9847094B1A
S11306109847FEE7DD0500009D020000450200004A
S11306206D010000AD0400000D030000A1010000F5
S1130630E50100001502000070B50D4E0D4D0024BB
S1130640AD1BAD1005D0A300F35801349847A54263
S1130650F9D100F0C3F8084E084D0024AD1BAD10CD
S113066005D0A300F35801349847A542F9D170BDD1
S1130670E8070000E8070000E8070000F0070000B2
S1130680034B10B5002B02D0024800F005F810BD52
S113069000000000A906000010B50100002300229C
S11306A0002000F01FF810BD70B5094B094CE41A86
S11306B0A41009D0084AA518AD00ED182B68013C18
S11306C09847043D002CF9D100F092F870BDC04663
S11306D0FC07000000080000FFFFFF3F7047C04612
S11306E07047C046F0B54E464546DE465746E0B52F
S11306F0364D83B00600286898460F009146FFF7F0
S1130700EDFF334B1C68A4235B00E058002852D053
S113071043681F2B13DC5A1C0192002E28D1019A26
S113072002339B0042601F502868FFF7D9FF002066
S113073003B03CBC90469946A246AB46F0BD254B5F
S1130740002B3DD0C820400000E000BF002837D077
S1130750A42200235200A15843600160A0504032FB
S1130760835004328350013301930023002ED6D0EA
S11307709A00924682444A46882154466250C422D2
S11307805200914681444A468739994012688B4603
S11307900A4394464A466146116084224146520007
S11307A0A150022EBBD102005C468D32FF3211688B
S11307B00C431460B3E720004D30FF30E050A7E74E
S11307C02868FFF78DFF01204042B1E73004002084
S11307D0D80700000000000008000020F8B5C0465B
S11307E0F8BC08BC9E46704781060000DD0000008E
S11307F0F8B5C046F8BC08BC9E467047B50000007A
S113080040420F000000000000000000F40200203D
S11308105C030020C403002000000000000000006E
S113082000000000000000000000000000000000C4
S113083000000000000000000000000000000000B4
S113084000000000000000000000000000000000A4
S11308500000000000000000000000000000000094
S11308600000000000000000000000000000000084
S11308700000000000000000000000000000000074
S11308800000000000000000000000000000000064
S11308900000000000000000000000000000000054
S11308A00000000000000000000000000000000044
S11308B001000000000000000E33CDAB34126DE6E1
S11308C0ECDE05000B00000000000000000000004A
S11308D00000000000000000000000000000000014
S11308E00000000000000000000000000000000004
S11308F000000000000000000000000000000000F4
S113090000000000000000000000000000000000E3
S1070C305004002048
S9030000FC
